:0200000490006A
:10000000280E0020AD020090015E00906156009025
:10001000F95D009041080090A1C20090000000002E
:10002000000000000000000000000000E9B800909F
:100030006910009000000000516A0090F1B8009033
:10004000C7020090C7020090C7020090C70200904C
:10005000C7020090C7020090C7020090C70200903C
:10006000C7020090C7020090C7020090C70200902C
:10007000C7020090C7020090C7020090C70200901C
:10008000C7020090C7020090C7020090C70200900C
:10009000C7020090C7020090C7020090C7020090FC
:1000A000C7020090C7020090C7020090C7020090EC
:1000B000C7020090C7020090C7020090C7020090DC
:1000C000C7020090C7020090C7020090C7020090CC
:1000D000C7020090C7020090C7020090C7020090BC
:1000E000C7020090C702009000000000C702009005
:1000F000C7020090C7020090C7020090C70200909C
:10010000C7020090C7020090C7020090C70200908B
:10011000C7020090C7020090C7020090C70200907B
:10012000C7020090C7020090C7020090C70200906B
:10013000C7020090C7020090C7020090C70200905B
:1001400000000000000000000000000000000000AF
:10015000C7020090C7020090090B0090C7020090F0
:10016000C7020090C7020090C7020090C70200902B
:10017000C7020090C702009001090090C7020090DA
:10018000C7020090C7020090C7020090C70200900B
:10019000C7020090C7020090C7020090C7020090FB
:1001A000C7020090C7020090C7020090C7020090EB
:1001B000C7020090C7020090C7020090C7020090DB
:1001C000C7020090C7020090C7020090C7020090CB
:1001D000C7020090C7020090C7020090C7020090BB
:1001E000C7020090C7020090C7020090C7020090AB
:1001F000C7020090C7020090C7020090C70200909B
:10020000C7020090C7020090C7020090C70200908A
:10021000C7020090C7020090C7020090C70200907A
:10022000C7020090C7020090C702009000000000C3
:10023000C7020090C702009000000000C7020090B3
:10024000C7020090C7020090C7020090C70200904A
:10025000C7020090C7020090C7020090C70200903A
:10026000C7020090C7020090C7020090C70200902A
:10027000C7020090C7020090C70200900000000073
:10028000C7020090C7020090C70200900000000063
:1002900000000000C7020090DFF80CD000F048FA20
:1002A0000048004759C30090280E002006488047A8
:1002B00006480047FEE7FEE7FEE7FEE7FEE7FEE74B
:1002C000FEE7FEE7FEE7FEE719BA0090990200900C
:1002D0002DE9F05F0546002092469B46884606467B
:1002E000814640241BE0284641464746224600F00E
:1002F00057F853465A46C01A914110D31146184632
:10030000224600F03EF82D1A67EB01084F462246C0
:100310000120002100F035F817EB00094E41201EA6
:10032000A4F10104DFDC484631462A464346BDE8D5
:10033000F09FD2B201E000F8012B491EFBD27047BA
:100340000022F6E710B513460A4604461946FFF7A1
:10035000F0FF204610BD30B50B460146002020229C
:10036000012409E021FA02F59D4205D303FA02F5C2
:10037000491B04FA02F52844151EA2F10102F1DC22
:1003800030BD202A04DB203A00FA02F10020704739
:100390009140C2F1200320FA03F3194390407047C3
:1003A000202A04DB203A21FA02F00021704721FACA
:1003B00002F3D040C2F12002914008431946704731
:1003C0002DE9FE4F804681EA0300C00F0C460090E5
:1003D00021F0004123F00045B8EB0200A94105D20D
:1003E0004046214690461C460B46024623F00040FC
:1003F000104347D0270DC7F30A00C3F30A510290F8
:10040000401A019040286BDAC3F3130040F4801BBC
:100410000098924620B10023D2EB030A63EB0B0B4A
:1004200001985946C0F140025046FFF7AAFF064620
:100430000D4650465946019A00F092F910EB08001B
:100440006141002487EA115284EAE7731A4340D0DD
:10045000009A62B3019A012A4FEA075215DC001B89
:1004600061EB02014FF0004202EA0752CDE900427F
:10047000001C41F5801132462B4600F092F903B082
:10048000BDE8F08F40462146F9E7001B61EB020111
:10049000001C41F5801300185B412018A2F50017DD
:1004A00047EB030140EAD570B6196D4111E06D08C4
:1004B0004FEA360645EAC0754FEA0752001B61EB6A
:1004C0000201001C41F5801149084FEA3000001973
:1004D000514132462B4603B0BDE8F04F00F052B90F
:1004E0000098012240000023D0EB020263EBE0738E
:1004F000009821464FEAE074B8EB000061EB04017C
:10050000E9E783F000435BE781F0004158E72DE91C
:10051000FE4F81EA030404F0004421F000410094FE
:100520004FF0000B23F0004350EA01045ED052EA82
:1005300003045BD0C3F30A54C1F30A552C44A4F25C
:10054000F3340194A0FB0254C1F3130141F4801170
:10055000C3F3130343F4801301FB024400FB034E77
:10056000840A970A44EA815447EA8357A4FB076840
:1005700002958D0A05FB07854FEA932C04FB0C546A
:100580002705029D4FEA065847EA1637B5EB0805DE
:100590006EEB070C870E920E47EA811742EA831230
:1005A000A7FB0201B6EB0B0164EB00042B0D43EA41
:1005B0000C335E1844EB1C50DA465146E7FB02014F
:1005C000C5F313044FEA0B3343EA14534FEA0432E2
:1005D000019C43EA0603A4F10C040294009CCDE9BB
:1005E00000B400F0DEF803B0BDE8F08F0020014653
:1005F000F9E72DE9F04D81EA030404F0004B21F006
:10060000004514464FF0000A23F0004150EA05026D
:1006100020D054EA01021DD0C5F30A570246C5F3A3
:100620001303C1F31300C1F30A5640F4801543F4D9
:100630008013A7EB0608101BD64608F2FD3873EBB3
:10064000050002D308F1010801E092185B41B8F1FE
:10065000000F03DA00200146BDE8F08D00204FF4C2
:100660008011064684460EE0171B73EB050705D381
:10067000121B63EB050306434CEA010C49084FEAE1
:10068000300092185B4150EA0107EDD152EA0300B5
:1006900012D082EA040083EA0501084305D0101B4A
:1006A000AB4106D20122002306E000224FF00043B6
:1006B00002E06FF0010253101AEB06004CEB0851F8
:1006C00010EB0A0041EB0B01BDE8F04D00F05AB809
:1006D000C1F30A52C1F3130140F2FF3341F4801118
:1006E0009A4202DA00200146704740F233439A42B0
:1006F000A2F2334202DC5242FFF752BEFFF741BE84
:1007000030B5041E71F1000404DB4FF00044404298
:1007100064EB0101141E73F1000405DB1C464FF06D
:100720000043524263EB0403994208BF904230BD3C
:100730001CB509480090094801900546009C06E058
:10074000E06840F0010394E8070098471034AC4299
:10075000F6D3FFF7A5FD000044F2009064F200908C
:10076000202A06DBCB17203A41FA02F043EAE07375
:1007700006E041FA02F3D040C2F120029140084362
:100780001946704710B5141E73F1000408DA401CB6
:1007900041F1000192185B411A4301D120F00100A0
:1007A00010BD2DE9F04D92469B4611B1B1FA81F290
:1007B00002E0B0FA80F220329046FFF7E2FD0446F4
:1007C0000F4640EA0A0041EA0B0153465A460843E5
:1007D00013D0114653EA010019D0C8F14002504627
:1007E000FFF7DEFD05460E46504659464246FFF7E6
:1007F000C8FD084305D0012004E020463946BDE885
:10080000F08D0020054346EAE0762C4337430A98F2
:100810006305E40AA0EB08000022FD0A44EA4754FD
:100820000A3002D500200146E9E7010510196941A7
:10083000DDE9084500196941BDE8F04DA2E7000077
:10084000FEE7000000000000806B816C496D02290A
:1008500006D0012180F83510C16C41F04001C1641F
:1008600000F042BC0000000010B5846BA26BA06CCD
:10087000002A01680A680BD0A36BDB071AD112F4B7
:10088000002217D0C968E26B01EBC201002219E017
:1008900010032DD40868000319D4E06BD4E91023A9
:1008A00003EB80000861A263A06B216C884212D028
:1008B0001DE000BF0A68120309D40969E26B01EB6D
:1008C000C201012200F01CFEA06B0138A063A06BE6
:1008D000216C88420BD12068C16841F00101C160E0
:1008E0000068800758BF10BD012084F8350010BD96
:1008F000606CC860A06B216C8842ECD0F7E7000008
:1009000040F24000C2F2000000F00EBC0000000007
:100910002DE9F04F83B006F05FFF40F2380A002067
:10092000C2F2000AC4F602005446002644F8080F3A
:100930002020C4E9020620466660C4E90466A66178
:10094000C4E90866C4E90A66266300F041FC4E204B
:100950000021052202F0C8FD4E2002F0B1FD44F254
:10096000D84040F29005C5F60200C2F200050168C9
:1009700041F002010160006800F00200029040F2C4
:10098000B8400299C4F2020028604B20EE60C5E92D
:1009900001064FF4806028614FF4805068614FF485
:1009A0008040A8614FF480702E63C5E907060420DB
:1009B00068620320C5E90A06284601F08DFE46203C
:1009C00000210022A564AC6302F08EFD462002F0F7
:1009D00077FD05F099FA43F20A0007F0CDFF0446CF
:1009E00043F20B0007F0C8FF40EA042145F24060E3
:1009F000814231D13FA045F240610BF0FFFD4EF640
:100A0000F65B4FF221284FF230290024C9F2000B87
:100A1000C9F20008C9F2000903E000BF0134FE2C4E
:100A200022D00BEB84003BF8245047882846F9B2CB
:100A30000AF042FA284607F09FFF8742EED00646AA
:100A4000404621460BF0DAFD484629463A463346F1
:100A50000BF0D4FDE2E700BF1FA00BF0CFFDFF209D
:100A600040B203B0BDE8F08F43F2122003210AF038
:100A700023FA43F6080001210AF01EFA43F60900A2
:100A8000B8210AF019FA43F60A0001210AF014FA13
:100A900043F60B004A210AF00FFA43F21220132109
:100AA0000AF00AFA43F21220A3210AF005FA0AF129
:100AB0000804C821042240F2DF1340F23F100090E6
:100AC000204600F0D5FA204600F0F6FA002040B2A9
:100AD00003B0BDE8F08F00BF4F56353634302045A7
:100AE00052524F522121212121202049443A255898
:100AF0000D0A00004F5635363430204F4B2C4944F8
:100B00003A307825580D0A0040F29000C2F20000F9
:100B100001F0E2B90000000040F20F42D0F800C03E
:100B2000C4F20202944511DC6F22C4F20202944521
:100B300022DC3F22C4F20202944539DC1022C4F2C6
:100B4000020294455AD0282254E000BF40F26F427E
:100B5000C4F2020294451BDC40F23F42C4F202029E
:100B600094452DDC40F21042C4F20202944545D077
:100B700040F228423EE000BF9F22C4F202029445A8
:100B800028DC7022C4F20202944537D0882231E07A
:100B900040F29F42C4F20202944523DC40F27042CC
:100BA000C4F20202944529D040F2884222E000BFFC
:100BB0004022C4F20202944520D058221AE000BF1D
:100BC00040F24042C4F20202944517D040F258422B
:100BD00010E000BFA022C4F2020294450ED0B82259
:100BE00008E000BF40F2B842C4F20202944505D0CA
:100BF00040F2A042C4F20202944517D10CF0F80270
:100C00004AF6AB23103ACAF6AA23A2FB03310AA381
:100C10005F2AC1F302115B5C40F2FF312CEA010153
:100C2000C36588BF04318165084670472CF0FF0119
:100C300081650846704700BF0006101600061016B2
:100C400080B540F20F4ED0F800C0C4F2020EF44559
:100C500014DC40F26F0EC4F2020EF44524DC40F2C4
:100C60003F0EC4F2020EF4453EDC40F2100EC4F218
:100C7000020EF44561D040F2280E5BE040F26F4E68
:100C8000C4F2020EF4451FDC40F23F4EC4F2020EE5
:100C9000F44533DC40F2104EC4F2020EF4454CD061
:100CA00040F2284E46E000BF40F29F0EC4F2020E12
:100CB000F4452DDC40F2700EC4F2020EF4453CD037
:100CC00040F2880E36E000BF40F29F4EC4F2020EA2
:100CD000F44527DC40F2704EC4F2020EF4452CD0ED
:100CE00040F2884E26E000BF40F2400EC4F2020EF1
:100CF000F44522D040F2580E1CE000BF40F2404EB6
:100D0000C4F2020EF44518D040F2584E12E000BF73
:100D100040F2A00EC4F2020EF4450ED040F2B80E1E
:100D200008E000BF40F2B84EC4F2020EF44504D011
:100D300040F2A04EC4F2020EF445CCF804308068B4
:100D4000402805D1CCF80820CCF80C1080BD00BF9D
:100D5000CCF80810CCF80C2080BD0000000000008A
:100D600070B540F26F44D0F800C0C4F20204D0F86D
:100D700058E0A4451ADC9F25C4F20205AC4533DCDB
:100D80005725C4F20205AC455ADC1025C4F2020511
:100D9000AC4500F098802825C4F20205AC4500F06F
:100DA00092804025C4F202058AE000BF45F22F453B
:100DB000C5F60205AC452DDC40F2B745C4F202058C
:100DC000AC454BDC40F27045C4F20205AC457AD02C
:100DD00040F28845C4F20205AC4574D040F2A0450B
:100DE000C4F202056CE000BF40F22745C4F20205E0
:100DF000AC4543DCA025C4F20205AC4563D0B82560
:100E0000C4F20205AC455ED040F21045C4F20205C2
:100E100056E000BF45F26B45C5F60205AC453FDC28
:100E200045F23045C5F60205AC454CD045F2444587
:100E3000C5F60205AC4546D045F258453EE000BF38
:100E40005825C4F20205AC453DD07025C4F2020518
:100E5000AC4538D08825C4F2020531E040F2B845EF
:100E6000C4F20205AC452ED045F20845C5F6020590
:100E7000AC4528D045F21C4520E000BF40F2284593
:100E8000C4F20205AC451ED040F24045C4F2020552
:100E9000AC4518D040F25845C4F2020510E000BF3E
:100EA00045F26C45C5F60205AC450CD045F29445BB
:100EB000C5F60205AC4506D045F28045C5F60205EB
:100EC000AC4540F0D080456EC66E002E866E6E60DA
:100ED0001CBFD0E91C566E60A44515DC9F24C4F2EB
:100EE0000204A4452CDC5724C4F20204A44551DCBE
:100EF0001024C4F20204A4457AD02824C4F20204C7
:100F0000A44575D040246FE045F22F44C5F6020495
:100F1000A44529DC40F2B744C4F20204A44545DCF0
:100F200040F27044C4F20204A44561D040F2884407
:100F3000C4F20204A4455BD040F2A04454E000BFD8
:100F400040F22744C4F20204A4453FDCA024C4F2CA
:100F50000204A4454CD0B824C4F20204A44547D0EE
:100F600040F2104440E000BF45F26B44C5F6020475
:100F7000A44555DC45F23044C5F60204A44561D0D1
:100F800045F24444C5F60204A4455BD045F25844FA
:100F900054E000BF5824C4F20204A44528D07024B1
:100FA000C4F20204A44523D088241DE040F2B844D2
:100FB000C4F20204A4451BD045F20844C5F602045D
:100FC000A4453FD045F21C4438E000BF40F228441D
:100FD000C4F20204A4450BD040F24044C4F202041F
:100FE000A44505D040F25844C4F20204A4453AD1C5
:100FF0008468C06D00F01F003F2505FA00F0CEF8B0
:101000000800DCF80000402C20F48020CCF8000020
:10101000CCF8043023D1CCF80820CCF80C1070BDEB
:1010200045F26C44C5F60204A4450BD045F2804459
:10103000C5F60204A44505D045F29444C5F6020461
:10104000A44510D1C46D012504F01F04806805FA81
:1010500004F4CEF804404028CCF80430DBD0CCF8BF
:101060000810CCF80C2070BD704700000000000094
:1010700090F834C0BCF1010F4FF0020C17D080B5CE
:1010800080F835C0DDF808C0D0F800E041EA024140
:1010900043EA0C434FF0000CCEF82430CEF8201079
:1010A000012180F8351080F834C0BDE880406046EA
:1010B000704700000000000090F8341001294FF044
:1010C00002010CD080F8351001680A6842F0040271
:1010D0000A60012180F83510002180F8341008469C
:1010E0007047000000000000704700000000000092
:1010F00010B502F011F940F23804C2F20004616840
:10110000401AC0087C2809D902F006F960606078AE
:10111000A070012060700120207010BD6078013047
:1011200060700120207010BD70B50446006840F664
:1011300049060569C9F20006690721D4A8072DD41C
:10114000E8063BD4280705D52068082141612046E0
:1011500000F0D2F9E80708BF70BD20680168890770
:1011600003D5C16821F01E01C160C16821F00101F1
:10117000C160012141612046BDE87040FFF7B8BF62
:1011800004214161E06C40F00200E06484F8351015
:10119000A06C066500F044FDA807D1D521680222A5
:1011A000A06C4A61E16C41F00101E164042184F822
:1011B0003510066500F034FDE806C3D5206810211F
:1011C0004161204600F054F82807BDD4C2E7000072
:1011D000002849D0B0B5044690F8350010B9204633
:1011E00000F04AF8022084F83500D4F818E04FF2F5
:1011F0000705BEF1000FCFF6E0751CBF002060624E
:1012000094E80510E368102A016801EA050101600D
:10121000D4E9045141EA0301236A41EA0501656A00
:1012200041EA0C0141EA0301A36A41EA0501E56ACA
:1012300041EA0301236B41EA0501056841EA030124
:1012400041EA050141EA0E0141EA0201016001D1D2
:10125000E1698161C16841F01E01C1600020E06464
:10126000012184F83510B0BD012070470000000056
:1012700070470000000000002DE9F04786B040F202
:1012800000080068C4F60208404503D006B0BDE877
:10129000F08700BF44F2E04040F6004AC5F6020085
:1012A000C5F6020A01AD022650F8041C4FF00009F1
:1012B00041F0010140F8041C50F8041C032701F020
:1012C000010101910199016841F01001016001687B
:1012D0000D2401F0100101910199016841F008010C
:1012E0000160016801F0080101910199016841F074
:1012F00002010160016801F0020101910199016898
:1013000041F004010160016801F0040101910199BB
:10131000016841F001010160016801F001010191E2
:101320000199016841F0080101600068294600F058
:10133000080001900198732001900AF580600296E0
:10134000CDF80C900497059401F0E2FE01A9082065
:10135000CDE9047481E841025046294601F0D8FEE7
:1013600001A98020CDE9047481E84102AAF500605A
:10137000294601F0CDFE01A9C020CDE9047481E821
:101380004102AAF58060294601F0C2FE01A9502061
:10139000CDE9047481E8410208F18050294601F04A
:1013A000B7FE4FF48041012250464FF4804401269D
:1013B00001F0A2FF50462946CDE90146CDE9036977
:1013C00001F0A6FE06B0BDE8F087000000000000B6
:1013D00070B582B0044690F8340001284FF0020046
:1013E00000F086804FF0010E84F834E084F8350078
:1013F0000026D4F800C0B6EB134FA06CDCF8005008
:1014000045F48045CCF80050DCF8005025F002058A
:10141000CCF80050DCF8005041EA0501CCF800108F
:1014200040F6690140F64905C9F20001C163C9F2FD
:101430000005C0E91356A663E663266466640BD113
:101440000CF1280101F07CFC002848D04020E06429
:10145000012084F8350048E04164C4F838E0E363D3
:101460006264E16BB1F5803F29D30021E36B5B0837
:10147000E363A36B5B00A363E36BB3F5803F1ED311
:10148000E36B5B08E363A36B5B00A363E36BB3F500
:10149000803F21BFE36B5B08E363A36B21BF5B006D
:1014A000A363E36BB3F5803F09D3E36B5B08E363AE
:1014B000A36B5B00A363E36BB1EB134FD6D1A16BBE
:1014C0000239A163A16B2164E16BE66B009602EB2C
:1014D00081030CF1280100F08FF80028B6D12068B4
:1014E000016841F0010101600020002184F83410FE
:1014F00002B070BD00000000704700000000000056
:1015000040F20F430068C4F20203984210DC6F23DC
:10151000C4F20203984221DC3F23C4F20203984242
:1015200038DC1023C4F20203984258D0282353E039
:1015300040F26F43C4F2020398421BDC40F23F4387
:10154000C4F2020398422DDC40F21043C4F20203BD
:10155000984244D040F228433EE000BF9F23C4F2AB
:101560000203984228DC7023C4F20203984236D06A
:10157000882331E040F29F43C4F20203984223DC07
:1015800040F27043C4F20203984228D040F28843EC
:1015900022E000BF4023C4F2020398421FD0582328
:1015A0001AE000BF40F24043C4F20203984216D052
:1015B00040F2584310E000BFA023C4F20203984257
:1015C0000DD0B82308E000BF40F2B843C4F20203D4
:1015D000984204D040F2A043C4F2020398422AB1D8
:1015E00000F1100200201160704700BF00F10C02F2
:1015F00000201160704700002DE9F041044680682A
:10160000802805D14FF4807060650120BDE8F0812D
:1016100094F83400012803D10220BDE8F08100BF16
:10162000012084F8340094F83500012822D10220EA
:1016300084F835000020606540F20F482068C4F24D
:10164000020840F26F454045DDF818C0C4F20205BB
:1016500016DC6F27C4F20207B84223DC3F27C4F22E
:101660000207B8423ADC1027C4F20207B8425CD045
:10167000282755E04FF4006060650120BDE8F08147
:10168000A8421BDC40F23F47C4F20207B8422DDCFF
:1016900040F21047C4F20207B84246D040F2284751
:1016A0003EE000BF9F27C4F20207B84228DC702743
:1016B000C4F20207B84238D0882731E040F29F4791
:1016C000C4F20207B84223DC40F27047C4F20207BA
:1016D000B8422AD040F2884722E000BF4027C4F237
:1016E0000207B84221D058271AE000BF40F2404715
:1016F000C4F20207B84218D040F2584710E000BFC9
:10170000A027C4F20207B8420FD0B82708E000BFF4
:1017100040F2B847C4F20207B84206D040F2A047F0
:10172000C4F20207B84240F0718207683F2647F4CE
:101730008027076008270361D4E9160303F01F031D
:1017400006FA03F3C35120466346FFF779FA20688F
:10175000A84219DC9F21C4F20201884232DC5721E1
:10176000C4F20201884259DC1021C4F2020188420D
:1017700000F097802821C4F20201884200F0918095
:101780004021C4F2020189E045F22F41C5F6020171
:1017900088422DDC40F2B741C4F2020188424BDCA2
:1017A00040F27041C4F2020188427AD040F288418E
:1017B000C4F20201884274D040F2A041C4F2020196
:1017C0006CE000BF40F22741C4F20201884243DCD2
:1017D000A021C4F20201884263D0B821C4F2020100
:1017E00088425ED040F21041C4F2020156E000BFD0
:1017F00045F26B41C5F6020188423FDC45F23041BB
:10180000C5F6020188424CD045F24441C5F60201BA
:10181000884246D045F258413EE000BF5821C4F20C
:10182000020188423DD07021C4F20201884238D0C2
:101830008821C4F2020131E040F2B841C4F2020151
:1018400088422ED045F20841C5F60201884228D0D0
:1018500045F21C4120E000BF40F22841C4F20201E1
:1018600088421ED040F24041C4F20201884218D0A2
:1018700040F25841C4F2020110E000BF45F26C4151
:10188000C5F6020188420CD045F29441C5F602012A
:10189000884206D045F28041C5F60201884240F0F8
:1018A000A781616EE26E002AA26E4A601CBFD4E975
:1018B0001C124A60404511DC6F21C4F202018842CB
:1018C0001EDC3F21C4F20201884235DC1021C4F243
:1018D0000201884257D0282150E000BFA8421BDCFB
:1018E00040F23F41C4F2020188422DDC40F2104137
:1018F000C4F20201884246D040F228413EE000BFD7
:101900009F21C4F20201884228DC7021C4F2020146
:10191000884238D0882131E040F29F41C4F2020170
:10192000884223DC40F27041C4F2020188422AD08E
:1019300040F2884122E000BF4021C4F20201884207
:1019400021D058211AE000BF40F24041C4F2020108
:10195000884218D040F2584110E000BFA021C4F2E4
:10196000020188420FD0B82108E000BF40F2B84120
:10197000C4F20201884206D040F2A041C4F2020142
:10198000884240F0358101680B2262F34401016016
:10199000416941F080014161216C09B9A16C19B123
:1019A0000821026811430160A84219DC9F21C4F29A
:1019B0000201884232DC5721C4F20201884259DC1C
:1019C0001021C4F20201884200F096802821C4F25E
:1019D0000201884200F090804021C4F2020189E0B7
:1019E00045F22F41C5F6020188422DDC40F2B74195
:1019F000C4F2020188424BDC40F27041C4F20201A1
:101A0000884279D040F28841C4F20201884273D002
:101A100040F2A041C4F202016CE000BF40F2274155
:101A2000C4F20201884243DCA021C4F202018842D0
:101A300062D0B821C4F2020188425DD040F2104168
:101A4000C4F2020156E000BF45F26B41C5F6020147
:101A500088423FDC45F23041C5F6020188424BD056
:101A600045F24441C5F60201884245D045F258414D
:101A70003EE000BF5821C4F2020188423CD07021F0
:101A8000C4F20201884237D08821C4F2020131E059
:101A900040F2B841C4F2020188422DD045F208411B
:101AA000C5F60201884227D045F21C4120E000BF64
:101AB00040F22841C4F2020188421DD040F2404168
:101AC000C4F20201884217D040F25841C4F2020128
:101AD00010E000BF45F26C41C5F6020188420BD010
:101AE00045F29441C5F60201884205D045F2804195
:101AF000C5F60201884274D1216E0A68D20303D56B
:101B00000A6842F480720A60E16E19B10A6842F410
:101B100080720A60404511DC6F21C4F202018842E4
:101B20001EDC3F21C4F20201884235DC1021C4F2E0
:101B30000201884255D0282150E000BFA8421BDC9A
:101B400040F23F41C4F2020188422DDC40F21041D4
:101B5000C4F20201884244D040F228413EE000BF76
:101B60009F21C4F20201884228DC7021C4F20201E4
:101B7000884236D0882131E040F29F41C4F2020110
:101B8000884223DC40F27041C4F20201884228D02E
:101B900040F2884122E000BF4021C4F202018842A5
:101BA0001FD058211AE000BF40F24041C4F20201A8
:101BB000884216D040F2584110E000BFA021C4F284
:101BC000020188420DD0B82108E000BF40F2B841C0
:101BD000C4F20201884204D040F2A041C4F20201E2
:101BE0008842016841F0010101600020BDE8F081F8
:101BF0000168052262F343010160216C19B9A16CEF
:101C000000293FF4D1AE0421CBE600BF076848F2BB
:101C1000200637430760012604278CE500000000FA
:101C2000F0B190F83510022918D180B540F20F427A
:101C30000168C4F20202914214DC6F23C4F2020371
:101C4000994225DC3F23C4F2020399423CDC102375
:101C5000C4F2020399425DD0282357E080214165F8
:101C60000120704740F26F43C4F2020399421BDC2B
:101C700040F23F43C4F2020399422DDC40F210438C
:101C8000C4F20203994245D040F228433EE000BF2F
:101C90009F23C4F20203994228DC7023C4F202039A
:101CA000994237D0882331E040F29F43C4F20203C7
:101CB000994223DC40F27043C4F20203994229D0D6
:101CC00040F2884322E000BF4023C4F2020399425D
:101CD00020D058231AE000BF40F24043C4F2020370
:101CE000994217D040F2584310E000BFA023C4F23D
:101CF000020399420ED0B82308E000BF40F2B84377
:101D0000C4F20203994205D040F2A043C4F2020398
:101D1000994277D191424FF0040280F8352011DCCE
:101D20006F20C4F20200814222DC3F20C4F2020094
:101D3000814239DC1020C4F20200814259D02820AF
:101D400054E000BF40F26F40C4F2020081421BDC4D
:101D500040F23F40C4F2020081422DDC40F21040CC
:101D6000C4F20200814244D040F228403EE000BF6D
:101D70009F20C4F20200814228DC7020C4F20200DD
:101D8000814236D0882031E040F29F40C4F2020008
:101D9000814223DC40F27040C4F20200814228D02C
:101DA00040F2884022E000BF4020C4F2020081429D
:101DB0001FD058201AE000BF40F24040C4F2020099
:101DC000814216D040F2584010E000BFA020C4F27B
:101DD000020081420DD0B82008E000BF40F2B840B8
:101DE000C4F20200814204D040F2A040C4F20200DA
:101DF0008142086820F0010008600021BDE88040B1
:101E0000084670470A6822F00E020A6045F25742FF
:101E1000C5F6020291420A6822F001020A600FDC54
:101E200045F22F42C5F60202914219DC45F2084202
:101E3000C5F60202914229D045F21C4222E000BFC1
:101E400045F27F42C5F60202914213DC45F2584248
:101E5000C5F60202914219D045F26C4212E000BF71
:101E600045F23042C5F6020291420FD045F244429B
:101E700008E000BF45F29442C5F60202914205D047
:101E800045F28042C5F6020291421AD1D0E9181CEF
:101E9000D0E916E30A6822F480720A6003F01F0199
:101EA000012202FA01F1CEF80410816ECCF8041080
:101EB000C16E31B10A6822F480720A60D0E91C1246
:101EC0004A60002180F83410012280F83520026D2C
:101ED000002A93D0904790E72DE9F04782B0002187
:101EE000019140F20C010446C2F2000148F2B51221
:101EF000C1F64E32A56D096840F26F490068C4F220
:101F00000209A1FB021848452E68296816DC9F21AA
:101F1000C4F2020188422DDC5721C4F2020188423A
:101F200052DC1021C4F2020188427CD02821C4F284
:101F30000201884277D0402170E000BF45F22F4275
:101F4000C5F60202904229DC40F2B742C4F2020216
:101F5000904245DC40F27041C4F20201884262D0F6
:101F600040F28841C4F2020188425CD040F2A041B4
:101F700054E000BF40F22741C4F2020188423FDC36
:101F8000A021C4F2020188424DD0B821C4F202015E
:101F9000884248D040F2104140E000BF45F26B4219
:101FA000C5F60202904275DC45F23042C5F60202E7
:101FB000904200F0828045F24442C5F6020290420F
:101FC0007BD045F2584273E05821C4F202018842A6
:101FD00029D07021C4F20201884224D088211DE05A
:101FE00040F2B842C4F2020290421CD045F20842CC
:101FF000C5F60202904260D045F21C4258E000BF94
:1020000040F22841C4F2020188420CD040F2404123
:10201000C4F20201884206D040F25841C4F20201E3
:10202000884240F04583E16D082201F01F0140F233
:102030000F4A8A40C4F2020A324200F0D68050456C
:102040004FF0040312DC6F27C4F20207B84265DCCC
:102050003F27C4F20207B84200F394801027C4F26D
:102060000207B84200F0B5802827ADE0484561DCA2
:1020700040F23F47C4F20207B84200F38B8040F2BF
:102080001047C4F20207B84200F0A38040F228478C
:102090009AE000BF45F26C42C5F6020290420CD0B5
:1020A00045F28042C5F60202904206D045F29442C3
:1020B000C5F60202904240F0FB820268E36D03F035
:1020C0001F0304279F400F4218BF12F004061BD1C4
:1020D00002279F400F4218BF12F002063AD1D940A2
:1020E000090740F1E58212F0080100F0E182016881
:1020F00021F00E010160012000FA03F169606065C2
:10210000002184F83410CAE211046F6034D49106BF
:1021100036D4016821F00401016031E09F27C4F248
:102120000207B84240DC7027C4F20207B84250D020
:10213000882749E040F29F47C4F20207B8423BDCDF
:1021400040F27047C4F20207B84242D040F28847DA
:102150003AE000BF11046F6000F1AE82910600F119
:10216000AF82016821F00A010160002084F8340088
:10217000012084F83500A3E2D00301D4A16C91E2E0
:10218000216C8FE24027C4F20207B84221D05827C1
:102190001AE000BF40F24047C4F20207B84218D02C
:1021A00040F2584710E000BFA027C4F20207B8422F
:1021B0000FD0B82708E000BF40F2A047C4F20207E2
:1021C000B84206D040F2B847C4F20207B84218BF7E
:1021D000082307681F4208D0036823F00403036044
:1021E000AA60626D42F00102626501228A403242B9
:1021F0006FD0504510DC6F23C4F2020398421DDCFF
:102200003F23C4F20203984234DC1023C4F20203D9
:10221000984256D028234FE048451BDC40F23F430C
:10222000C4F2020398422DDC40F21043C4F20203D0
:10223000984246D040F228433EE000BF9F23C4F2BC
:102240000203984228DC7023C4F20203984238D07B
:10225000882331E040F29F43C4F20203984223DC1A
:1022600040F27043C4F2020398422AD040F28843FD
:1022700022E000BF4023C4F20203984221D0582339
:102280001AE000BF40F24043C4F20203984218D063
:1022900040F2584310E000BFA023C4F2020398426A
:1022A0000FD0B82308E000BF40F2A043C4F20203FD
:1022B000984206D040F2B843C4F20203984240F07C
:1022C000018243691B0604D5AA60626D42F00202D6
:1022D000626504228A4032426FD0504510DC6F2381
:1022E000C4F2020398421DDC3F23C4F20203984269
:1022F00034DC1023C4F20203984256D028234FE066
:1023000048451BDC40F23F43C4F2020398422DDCF7
:1023100040F21043C4F20203984246D040F22843F0
:102320003EE000BF9F23C4F20203984228DC7023E2
:10233000C4F20203984238D0882331E040F29F4330
:10234000C4F20203984223DC40F27043C4F2020359
:1023500098422AD040F2884322E000BF4023C4F2D2
:102360000203984221D058231AE000BF40F24043B4
:10237000C4F20203984218D040F2584310E000BF64
:10238000A023C4F2020398420FD0B82308E000BF94
:1023900040F2A043C4F20203984206D040F2B84390
:1023A000C4F20203984240F0958103689B0704D56C
:1023B000AA60626D42F004026265102202FA01F125
:1023C000314200F0818050454FF0080210DC6F234D
:1023D000C4F2020398421DDC3F23C4F20203984278
:1023E00034DC1023C4F20203984256D028234FE075
:1023F00048451BDC40F23F43C4F2020398422DDC07
:1024000040F21043C4F20203984246D040F22843FF
:102410003EE000BF9F23C4F20203984228DC7023F1
:10242000C4F20203984238D0882331E040F29F433F
:10243000C4F20203984223DC40F27043C4F2020368
:1024400098422AD040F2884322E000BF4023C4F2E1
:102450000203984221D058231AE000BF40F24043C3
:10246000C4F20203984218D040F2584310E000BF73
:10247000A023C4F2020398420FD0B82308E000BFA3
:1024800040F2A043C4F20203984206D040F2B8439F
:10249000C4F20203984218BF04220368134213D007
:1024A000A96001684903016808D4C90508D4016816
:1024B00021F008010160216C21B905E008034FD427
:1024C000216C09B120468847E06D00F01F012020F3
:1024D00000FA01F2324200F0A98020681023504532
:1024E00010DC6F27C4F20207B8421DDC3F27C4F29C
:1024F0000207B84238DC1027C4F20207B8425AD0AB
:10250000282753E048451BDC40F23F47C4F202074E
:10251000B84231DC40F21047C4F20207B8424AD058
:1025200040F2284742E000BF9F27C4F20207B842AA
:102530002CDC7027C4F20207B8423CD0882735E073
:1025400040F29F47C4F20207B84227DC40F27047CE
:10255000C4F20207B8422ED040F2884726E000BFFE
:10256000A16C0029AED1AFE74027C4F20207B84200
:1025700021D058271AE000BF40F24047C4F20207BA
:10258000B84218D040F2584710E000BFA027C4F26C
:102590000207B8420FD0B82708E000BF40F2A047BA
:1025A000C4F20207B84206D040F2B847C4F20207AC
:1025B000B84218BF022307681F4237D0AA6094F8B8
:1025C0003520042A026819D122F0160202604269FD
:1025D00022F080024261226C0AB9A26C1AB1026830
:1025E00022F0080202603F208840A860002084F8A2
:1025F0003400012084F83500216D53E05103016857
:102600000CD4C9050ED4016821F01001016000202E
:1026100084F83400012084F8350003E0080301D475
:10262000616C00E0E16B09B120468847606D0028CD
:102630003ED0606DC00734D0042084F83500206897
:102640004FEA9821026822F001020260019A0132E9
:1026500001928A421AD80268D20717D0019A013231
:1026600001928A4212D80268D2070FD0019A013231
:1026700001928A420AD80268D20707D0019A013231
:1026800001928A4202D80268D207DFD1002184F881
:1026900034100068C0074FF0030008BF012084F821
:1026A0003500E16C21B1204602B0BDE8F047084793
:1026B00002B0BDE8F08700BFD00301D4616CF1E740
:1026C000E16BEFE7026804228A4032427FF405AEF4
:1026D00073E600BF026870E62DE9F041044600F0A1
:1026E0001BFEFCB140F26F4805462068C4F20208A8
:1026F00040451BDC9F21C4F20201884232DC572195
:10270000C4F20201884259DC1021C4F2020188425D
:1027100000F083802821C4F20201884200F07D800D
:10272000402175E00120BDE8F08100BF45F22F4156
:10273000C5F60201884229DC40F2B741C4F2020129
:10274000884247DC40F27041C4F20201884264D002
:1027500040F28841C4F2020188425ED040F2A041BA
:1027600056E000BF40F22741C4F20201884241DC3A
:10277000A021C4F2020188424FD0B821C4F2020164
:1027800088424AD040F2104142E000BF45F26B411E
:10279000C5F60201884200F3C18045F23041C5F61A
:1027A0000201884200F0CD8045F24441C5F60201A5
:1027B000884200F0C68045F25841BDE05821C4F27D
:1027C0000201884229D07021C4F20201884224D03B
:1027D00088211DE040F2B841C4F2020188421CD0B9
:1027E00045F20841C5F60201884200F0AA8045F290
:1027F0001C41A1E040F22841C4F2020188420CD001
:1028000040F24041C4F20201884206D040F25841F1
:10281000C4F20201884240F02981002184F834107A
:10282000022184F83510016821F00101016000BF28
:1028300020680168C9070DD000F06EFD401B062816
:10284000F6D320206065032084F835000120BDE820
:10285000F08100BF48F23F0204F108060168CFF69C
:10286000106211406CCE1143A2691943E3692943F8
:10287000256A0E43616A3343042943EA050343EAA8
:10288000020303D1D4E90B652E43334341F2000622
:10289000C5F600463668B6F1005F1DD36668A6F13E
:1028A0002905292D18D8DFE805F01515151515157A
:1028B00017171717171717171717171717171717A8
:1028C00015151515171717171515171717171717A4
:1028D0001515151543F4801303600429436923F08B
:1028E000070341EA030140F0DD80D4E90A53002BDD
:1028F00041EA050100F0D680B2F5005F00F0B88033
:10290000002A40F0C180022D00F0C180012D00F0AE
:10291000B580002D00F0BB80C4E000BF45F26C41E3
:10292000C5F6020188420CD045F28041C5F602018D
:10293000884206D045F29441C5F60201884240F033
:10294000958004F1080E002184F83410022184F8E7
:1029500035100168A3699EE80450A2F18007E6697A
:10296000B7FA87F765697F09402A4FEA873743EA54
:1029700006026FF3101142EA050208BF102741EA70
:10298000DC0142EA0E02236A394341EAD20141EAFC
:10299000131140F80819C0B2CD2148433C2101EA87
:1029A0009020E0652046FEF7B7F8E16D012201F0C6
:1029B0001F0102FA01F141602068404500F3818067
:1029C0009F21C4F20201884214DC5721C4F20201A3
:1029D000884227DC1021C4F20201884200F0C7803F
:1029E0002821C4F20201884200F0C1804021C4F2D3
:1029F0000201B9E040F22741C4F20201884221DC21
:102A0000A021C4F20201884200F0B180B821C4F2D2
:102A10000201884200F0AB8040F21041C4F2020192
:102A2000A2E000BF5821C4F20201884200F09F805A
:102A30007021C4F20201884200F099808821C4F21A
:102A4000020191E040F22841C4F20201884200F004
:102A50008E8040F24041C4F20201884200F087803B
:102A600040F25841C4F202017EE000BF4020E9E696
:102A7000032D17D8DFE805F00E0B0E02A3F1C0728C
:102A8000B2FA82F2520904E0032D03D30AD1C3F350
:102A900000623AB140206065012084F83500BDE84D
:102AA000F08100BF41612046FEF736F8E16D3F221C
:102AB00001F01F0102FA01F18160206840457FF7B3
:102AC0007FAF45F22F41C5F60201884216DC40F285
:102AD000B741C4F20201884226DC40F27041C4F2E0
:102AE0000201884243D040F28841C4F20201884288
:102AF0003DD040F2A041C4F2020135E045F26B4105
:102B0000C5F6020188421FDC45F23041C5F60201DC
:102B100088422CD045F24441C5F60201884226D0B5
:102B200045F258411EE000BF40F2B841C4F2020134
:102B300088421CD045F20841C5F60201884216D0F1
:102B400045F21C410EE000BF45F26C41C5F60201A2
:102B500088420CD045F29441C5F60201884206D065
:102B600045F28041C5F60201884240F0E18045F21D
:102B7000574C45F6FC01C5F6020CC5F6020160454E
:102B80000EDC45F22F42C5F60202904218DC45F2F7
:102B90000842C5F60202904228D045F21C4221E0CC
:102BA00045F27F42C5F60202904213DC45F25842DC
:102BB000C5F60202904219D045F26C4212E000BF05
:102BC00045F23042C5F6020290420FD045F244422F
:102BD00008E000BF45F29442C5F60202904205D0DB
:102BE00045F28042C5F60202904247D100F0FC0255
:102BF0004CF6CD43083ACCF6CC43A2FB0323A1F11B
:102C0000FC05A1F17C061B0905EB830503F01F02FF
:102C1000A3682566802B4FF0010303FA02F2666673
:102C2000A26605D100206060286072601EE000BFCF
:102C30006768FBB2013F072F2B60726016D85E1EDB
:102C4000082E19D2604501F1440237DC45F22F47C6
:102C5000C5F60207B84241DC45F20847C5F602074F
:102C6000B84259D045F21C474AE000BF00206067D7
:102C7000C4E91B005CE000BFE06E54E000F0F80225
:102C80004AF6AB23103ACAF6AA23A2FB032740F266
:102C90000F43C4F2020308253A09984203F1AA0639
:102CA000134688BF05EB171340F60005B042C4F287
:102CB000020505F1800628BF1346A5E745F27F47C8
:102CC000C5F60207B84213DC45F25847C5F60207BD
:102CD000B84221D045F26C4712E000BF45F23047C0
:102CE000C5F60207B84217D045F2444708E000BFD6
:102CF00045F28047C5F60207B8420DD045F2944729
:102D0000C5F60207B84207D040F60000C4F2020040
:102D100000F1FC0100F5A07201EB83000121E066E7
:102D2000B1402267616700210160D4E91C01416064
:102D300000206065012184F83510BDE8F0810000B5
:102D400040B1B0B5054690F83400012804D1022006
:102D5000B0BD00BF01207047012085F8340095F810
:102D60003500012828D1022085F83500002068654B
:102D70002868046824F0010404602846FDF7F0FF89
:102D800040F20F422868C4F2020240F26F419042C2
:102D9000C4F2020118DC6F23C4F20203984225DC5E
:102DA0003F23C4F2020398423CDC1023C4F2020326
:102DB00098425ED0282357E0002085F834004FF475
:102DC000006068650120B0BD88421BDC40F23F43D3
:102DD000C4F2020398422DDC40F21043C4F2020315
:102DE000984246D040F228433EE000BF9F23C4F201
:102DF0000203984228DC7023C4F20203984238D0C0
:102E0000882331E040F29F43C4F20203984223DC5E
:102E100040F27043C4F2020398422AD040F2884341
:102E200022E000BF4023C4F20203984221D058237D
:102E30001AE000BF40F24043C4F20203984218D0A7
:102E400040F2584310E000BFA023C4F202039842AE
:102E50000FD0B82308E000BF40F2B843C4F2020329
:102E6000984206D040F2A043C4F20203984240F0D8
:102E70002F8103680B2464F3440303602B6C1BB1A4
:102E80000823046823430360884219DC9F23C4F2AB
:102E90000203984232DC5723C4F20203984259DC01
:102EA0001023C4F20203984200F096802823C4F253
:102EB0000203984200F090804023C4F2020389E0AC
:102EC00045F22F43C5F6020398422DDC40F2B7438A
:102ED000C4F2020398424BDC40F27043C4F2020396
:102EE000984279D040F28843C4F20203984273D0EA
:102EF00040F2A043C4F202036CE000BF40F227435B
:102F0000C4F20203984243DCA023C4F202039842B5
:102F100062D0B823C4F2020398425DD040F210435D
:102F2000C4F2020356E000BF45F26B43C5F602034C
:102F300098423FDC45F23043C5F6020398424BD03D
:102F400045F24443C5F60203984245D045F2584342
:102F50003EE000BF5823C4F2020398423CD07023E5
:102F6000C4F20203984237D08823C4F2020331E04E
:102F700040F2B843C4F2020398422DD045F2084310
:102F8000C5F60203984227D045F21C4320E000BF5B
:102F900040F22843C4F2020398421DD040F240435D
:102FA000C4F20203984217D040F25843C4F202031D
:102FB00010E000BF45F26C43C5F6020398420BD007
:102FC00045F29443C5F60203984205D045F280438A
:102FD000C5F60203984274D12B6E1C68E40303D536
:102FE0001C6844F480741C60EB6E1BB11D6845F4D2
:102FF00080751D60904211DC6F21C4F2020188428D
:103000001EDC3F21C4F20201884235DC1021C4F2EB
:103010000201884255D0282150E000BF88421BDCC5
:1030200040F23F41C4F2020188422DDC40F21041DF
:10303000C4F20201884244D040F228413EE000BF81
:103040009F21C4F20201884228DC7021C4F20201EF
:10305000884236D0882131E040F29F41C4F202011B
:10306000884223DC40F27041C4F20201884228D039
:1030700040F2884122E000BF4021C4F202018842B0
:103080001FD058211AE000BF40F24041C4F20201B3
:10309000884216D040F2584110E000BFA021C4F28F
:1030A000020188420DD0B82108E000BF40F2B841CB
:1030B000C4F20201884204D040F2A041C4F20201ED
:1030C0008842016841F0010101600020B0BD00BFED
:1030D0000368052464F3430303602B6C002B3FF467
:1030E000D3AE0423CDE60000B0B5044600F014F9D9
:1030F00040F204010546C2F20001621C097818BFC3
:103100000C4400BF00F008F9401BA042FAD3B0BD48
:103110002DE9F04F82B00F68002F00F0D78000F14A
:10312000264242F2004402F1FF728305C5F6020412
:103130000A26A04243EA922208BF0926092A4FF034
:10314000010A38BF1646002200250096002609E035
:1031500001350F6837FA05F306F1020602F10402A1
:1031600000F0B4800AFA05FB17EA0B08F0D0D1F89A
:103170000490B9F1120F00F2A1800AFA09F717F0D2
:10318000061F00F09B800323876803FA06FCCC68C7
:1031900027EA0C0EB44044EA0E04846044684FEA07
:1031A00019134FEA450A6FEA0C0C24EA0B04AB40F2
:1031B0002343436049F01004C368122C8C6803EA6F
:1031C0000C0304FA0AF443EA0403C36014D16FF059
:1031D000030302F01C0703EA55030F24034404FA17
:1031E00007F9D3F820E00C692EEA090EBC4044EA46
:1031F0000E071F62D1F8049009F00303076803FA71
:103200000AF307EA0C075FEAC9044FF0010A43EA30
:10321000070303609CD544F2F44740F2084EC5F61C
:103220000207C5F6000E0F244FF0B0493B6843F08B
:1032300002033B603B6803F00203019325F00303A4
:10324000019F02F00C0753F80EC0BC402CEA040C9E
:10325000009C04FA07F747EA0C0743F80E7040F2A7
:10326000040EC5F6000EDEF87CC04F684CEA080478
:10327000FB0358BF2CEA0804BB03CEF87C40DEF801
:1032800080C04CEA080458BF2CEA0804FB02CEF8C0
:103290008040D9F800C04CEA080458BF2CEA080462
:1032A000BF02C9F80040DEF8003043EA080458BF06
:1032B00023EA0804CEF800404AE700BF0323B246E1
:1032C00003FA06F76FEA070C74E700BF02B0BDE827
:1032D000F08F0000000000000069084018BF0120C6
:1032E0007047000000000000426902EA01039143B8
:1032F00041EA034181617047002A08BF09048161E6
:10330000704700000000000041F20000C5F60040D8
:103310000068000C7047000040F62020C2F2000058
:10332000006870470000000040F2040040F62021D1
:10333000C2F20000C2F2000100780A68104408607E
:10334000704700000000000080B5032000F0FCF88A
:1033500001F066FA44F218414DF6F853C5F6020141
:10336000C9F200030A68C2F303229A5C096801F0FB
:103370000F0102F01F02595CD04040F21002C2F26D
:10338000000201F01F0120FA01F1116040F20C016E
:10339000C2F2000108600F2000F00AF800281CBFEC
:1033A000012080BD00F07CF8002080BD00000000FE
:1033B00070B540F20406C2F200063178E1B104466D
:1033C00040F20C00C2F200004FF47A72B2FBF1F14D
:1033D0000068B0FBF1F001F093FF0F2C4FF00105F6
:1033E00008D838B94FF0FF3000222146002500F000
:1033F0007BF87460284670BD012070BD000000009D
:10340000B0B502784EF69C5CCEF2000C43784CF8D6
:10341000043CFAB14368CCF80030037BC17A90F8E1
:103420000AE0457B447A42EA0372837B42EA016107
:10343000C27B41EACE41007A41EA854141EA4341FB
:1034400041EA024141EA042141EA4000CCF804008B
:10345000B0BD00BF0020CCF80000CCF80400B0BD27
:103460004EF62450CEF20000BFF35F8F016821F4C6
:1034700080310160002101677047000000000000FA
:103480004EF6245140F00100CEF2000108670868B2
:1034900040F480300860BFF34F8FBFF36F8F7047E9
:1034A00081B044F2F440C5F60200016841F0020127
:1034B0000160006800F002000090009801B07047C1
:1034C000002848BF704700F01F01012202FA01F1F5
:1034D0004EF20012C0F34A10CEF2000242F8201061
:1034E000704700000000000070B54EF60C5C4FF015
:1034F000FF36CEF2000C00F1604505F56445DCF8BE
:103500000030C3F3022E8EF00703042B28BF0423E0
:10351000BEF1030406FA03F321EA030100F00F03EE
:1035200038BF0024043B0028634406FA04F048BF77
:1035300003F10C05A14022EA0000084300012870B5
:1035400070BD0000000000004EF60C514FF6FF0366
:10355000CEF200010A681A4060F30A2242F080604D
:1035600040F0FD7008607047B0B544F60C05C5F634
:10357000020529684907296806D401F00701081ADD
:1035800018BF0120B0BD00BF21F00701084328602B
:10359000FFF7C2FE044600BF55F8080C800407D4AC
:1035A000FFF7BAFE001BB0F57A7FF5D90120B0BD58
:1035B0000020B0BD0000000080B501F0A9F844F281
:1035C00020414DF6F852C5F60201C9F20002096821
:1035D000C1F30211515C01F01F01C84080BD000021
:1035E00080B544F2384EC5F6020E5EF8103C5EF827
:1035F000101C5EF80C2CC1F3053CDEF80410BCF185
:10360000000F15D0C908D20601EAE2716FF35F31ED
:1036100000EE101A03F003010229B8EE400A0DD0A3
:1036200081B95EF8381C890610D49FED361A1BE06C
:1036300000218160C0E9001180BD00BF9FED301AFC
:1036400012E000BF9FED2D1A0EE000BF5EF8381C9F
:1036500049F20002C0F2D032C1F3C10122FA01F1F5
:1036600001EE101AB8EE411ADEF800109FED263A6E
:103670006FF35F2102EE101ADEF80010C1F346214D
:10368000B8EE422A00EE032A00EE10CAB7EE003A66
:10369000B8EE400A81EE000A32EE031A02EE101A6A
:1036A000B8EE422A20EE010A32EE031A80EE011A29
:1036B000BCEEC11A80ED001ADEF80010C1F306411D
:1036C00001EE101AB8EE411A31EE031A80EE011A1B
:1036D000BCEEC11A80ED011ADEF80010C1F30661DC
:1036E00001EE101AB8EE411A31EE031A80EE010A0B
:1036F000BCEEC00A10EE101A816080BD0024744A2E
:1037000020BCBE4B0024744C0000003900000000B7
:1037100080B544F2404EC5F6020E5EF8183C5EF8E5
:10372000181C5EF8142CC1F3055CDEF80410BCF123
:10373000000F15D0C908D20501EAE2716FF35F31BD
:1037400000EE101A03F003010229B8EE400A0DD072
:1037500081B95EF8401C890610D49FED361A1BE033
:1037600000218160C0E9001180BD00BF9FED301ACB
:1037700012E000BF9FED2D1A0EE000BF5EF8401C66
:1037800049F20002C0F2D032C1F3C10122FA01F1C4
:1037900001EE101AB8EE411ADEF800109FED263A3D
:1037A0006FF35F2102EE101ADEF80010C1F346211C
:1037B000B8EE422A00EE032A00EE10CAB7EE003A35
:1037C000B8EE400A81EE000A32EE031A02EE101A39
:1037D000B8EE422A20EE010A32EE031A80EE011AF8
:1037E000BCEEC11A80ED001ADEF80010C1F30641EC
:1037F00001EE101AB8EE411A31EE031A80EE011AEA
:10380000BCEEC11A80ED011ADEF80010C1F30661AA
:1038100001EE101AB8EE411A31EE031A80EE010AD9
:10382000BCEEC00A10EE101A816080BD0024744AFC
:1038300020BCBE4B0024744C000000390000000086
:103840002DE9F0470446C07844F22C480007C5F63D
:10385000020845D5606E4FEA305103290CD8DFE8E5
:1038600001F003112F3800BFD8F8001041F40031E7
:10387000C8F800102DE000BF01266078C0070AD00C
:1038800032E000BF201D022103F0E6F80646F8B141
:103890006078C00728D135463746607880073BD42A
:1038A0003E466078400750D4B1466078000700F18A
:1038B00067804F46E078800740F15F817AE000BF83
:1038C00004F12400022103F05BF906460028DFD151
:1038D000606ED8F8241021F440110843C8F8240081
:1038E00000266078C007D6D0606D042800F2A6805C
:1038F0003546DFE800F003ABB10A0A00D8F8000053
:10390000354640F40030C8F80000002D2F4600F086
:10391000AD8060788007C3D5A06D4FEAB010042851
:1039200000F2B480DFE800F004BAC00A0A0000BF69
:10393000D8F8000040F40030C8F80000002D2E46F2
:1039400000F0BC8060784007AED5D4F8A4004FEA00
:103950007050042800F2C280DFE800F004C8CE0AEC
:103960000A0000BFD8F8000040F40030C8F800009A
:10397000002DA94600F0CA80607800077FF599AF56
:10398000D4F8A8004FEA3060042800F2CF80DFE8C6
:1039900000F003D5DB090900D8F8000040F400303E
:1039A000C8F80000002D2F4600F0D880E07880078E
:1039B00040F1E380A06C4FEA301003281AD8DFE80A
:1039C00000F003212B0300BF2E466DB36078C006C4
:1039D00000F1D88037466078800600F1ED803E46E1
:1039E0006078400600F1FC8037466078000640F1C0
:1039F000BA8109E1012501266078C00600F1C28084
:103A0000E8E700BFD8F8000040F40030C8F8000034
:103A1000002D2E46DAD107E0201D022103F01CF80C
:103A20000546002D2E46D1D1D8F82000A16C20F0FB
:103A3000300000250843C8F820009EE0012501273A
:103A4000607880073FF568AF2AE700BF201D00219E
:103A500003F002F805E000BF04F12400002103F0A8
:103A60008FF80546002D2F467FF453AFD8F8240079
:103A7000616D20F0070000250843C8F82400374690
:103A8000607880077FF50CAF46E700BF012501266F
:103A9000607840073FF559AF06E700BF201D0021C1
:103AA00002F0DAFF05E000BF04F12400002103F07A
:103AB00067F80546002D2E467FF444AFD8F8240061
:103AC000A16D20F4E07000250843C8F824003E46AC
:103AD000607840077FF5E8AE37E700BF01254FF07B
:103AE0000109607800073FF54BAFE2E6201D002199
:103AF00002F0B2FF05E000BF04F12400002103F052
:103B00003FF80546002DA9467FF436AFD8F82C00C3
:103B1000D4F8A41020F4600000250843C8F82C0055
:103B2000B146607800077FF5C4AE29E7012501277B
:103B3000E07880073FF53EAF1FE000BF201D002169
:103B400002F08AFF05E000BF04F12400002103F029
:103B500017F80546002D2F467FF428AFD8F82C0023
:103B6000D4F8A81020F0E06000250843C8F82C0025
:103B70004F46E07880073FF51DAF3E466078C006AF
:103B80007FF528AFE06D4FEA3030042800F26C80FA
:103B9000DFE800F00472780A0A0000BFD8F80000DD
:103BA00040F40030C8F80000002D2F4600F074806B
:103BB000607880067FF513AF206E4FEA304005280D
:103BC00000F27A80DFE800F004808A04040400BF79
:103BD000002D2E4600F08C80607840067FF504AF03
:103BE000D4F8AC004FEA3070052800F29180DFE88D
:103BF00000F00397A1030303002D2F4600F0A480DB
:103C00006078000640F1AF80E06E58B1B0F1005F1F
:103C100010D0B0F1805F1FD1D8F8000040F4003020
:103C2000C8F800002E466DB1E078C00700F0CF80E4
:103C30009DE000BF201D012102F00EFF0546002D72
:103C40002E46F1D1D8F82400E16E20F04050002536
:103C50000843C8F8240086E001250126E078C00763
:103C600040F08580B3E000BF012501276078800621
:103C70003FF5A2AFB3E600BF201D002102F0ECFE2D
:103C800005E000BF04F12400002102F079FF0546A1
:103C9000002D2F467FF48CAFD8F82400E16D20F47E
:103CA000E04000250843C8F82400374660788006C5
:103CB0007FF595AE80E700BF0125012660784006BC
:103CC0003FF58EAF90E600BF201D012102F0C4FE3B
:103CD0000546002D2E467FF47FAF09E004F1240055
:103CE000012102F04DFF0546002D2E467FF474AFF2
:103CF000D8F82400216E20F4E02000250843C8F8FD
:103D000024003E46607840067FF56EAE68E700BF4F
:103D100001250127607800063FF576AF23E000BF5C
:103D2000201D012102F098FE0546002D2F467FF44C
:103D300067AF09E004F12400012102F021FF0546EC
:103D4000002D2F467FF45CAFD8F82C00D4F8AC10CF
:103D500020F0E04000250843C8F82C003746607882
:103D600000063FF551AF3E46E078C0072FD0606CAB
:103D7000032809D8DFE800F002101A02A946EDB1C5
:103D8000A07840062AD426E001254FF00109A0784A
:103D9000400620D522E000BFD8F8000040F40030F3
:103DA000C8F80000002DA946EAD107E0201D022135
:103DB00002F052FE0546002DA946E1D1D8F82000B8
:103DC000616C20F0030000250843C8F82000B146CC
:103DD000A078400602D44F4619E000BFD8F8D403BB
:103DE00040F48070C8F8D403FFF796FA064600BF87
:103DF000D8F8D403C00507D4FFF78EFA801B6428D7
:103E0000F6D90325032702E0002D2F4664D0207841
:103E1000C00700F0B680A06F4FEAF000052800F25E
:103E20008D80DFE800F003919B030303002D2E46F5
:103E300000F09E802078800700F1A8803746207827
:103E4000400700F1B7803E462078800600F1C88028
:103E500037462078400600F1DB803E462078000699
:103E600000F1EE8037462068010740F10181D4F867
:103E70008000B0F5805F09D104F12400022102F036
:103E80007FFE002818BF0127D4F88000D8F828103A
:103E900021F440510843C8F828002068C10640F1C9
:103EA000EA80D4F89400B0F5807F09D104F12400B1
:103EB000022102F065FE002818BF0127D4F8940003
:103EC000D8F82C1021F440710843C8F82C00206861
:103ED000000340F1F780D0E0D8F84410D4F8B000E7
:103EE000414011F4407F11D0D8F84410D8F8442054
:103EF00042F48032C8F84420D8F8442021F44071BC
:103F000022F48032C8F84420C8F84410B0F5807F0D
:103F100040F0AC82FFF700FA064641F2883A0325EA
:103F2000032700BFD8F84400800700F19D82FFF707
:103F3000F3F9801B5045F5D969E700BF012501263B
:103F40002078800722D479E7201D012102F084FD2A
:103F50000546002D2E467FF46DAF09E004F12400E4
:103F6000012102F00DFE0546002D2E467FF462AFC2
:103F7000D8F82800A16F20F0380000250843C8F8C1
:103F800028003E46207880077FF558AF606F0528EF
:103F900000F28E81DFE810F0060094019E01060019
:103FA00006000600002D2F4600F09E812078400775
:103FB0007FF549AFD4F89000052800F2A581DFE82D
:103FC00010F00700AB01B50107000700070000BFB4
:103FD000002D2E4600F0B481207880067FF538AFA2
:103FE000D4F88C004FEA3070052800F2B981DFE880
:103FF00010F00700BF01C90107000700070000BF5C
:10400000002D2F4600F0C881207840067FF525AFAF
:10401000D4F898004FEAB020052800F2CD81DFE8FF
:1040200010F00700D301DD0107000700070000BF03
:10403000002D2E4600F0DC81207800067FF512AFBF
:10404000D4F89C004FEA7030052800F2E181DFE8E7
:1040500010F00700E701F10107000700070000BFAB
:10406000002D2F4600F0F081206801073FF5FFAEDC
:10407000C1063FF516AF000324D5D4F8A000B0F573
:10408000003F0FD0B0F5803F06D0B8BB201D002107
:1040900002F0E2FC05E000BF04F12400022102F07E
:1040A0006FFD05462E461DB1A07840073FD50DE0B7
:1040B000D8F82C00D4F8A01020F440300025084394
:1040C000C8F82C003E46A078400730D5D4F88400CC
:1040D000B0F5401F0BD0B0F5001F15D0B0F5801F14
:1040E00070D1D8F8000040F40030C8F800002F4626
:1040F0009DB1A078C0071ED169E000BF012501264F
:10410000A0784007E2D412E004F12400012102F07B
:1041100037FD0546002D2F46EBD1D8F82800D4F8FE
:10412000841020F4401000250843C8F828003746C2
:10413000A078C0074BD0E06CB0F5803F2AD0D8BB48
:10414000D8F8000040F40030C8F800002E464DB307
:10415000206881003FD4810348D4C1025DD4C100EE
:1041600065D481026FD4410078D4B0F1FF3F40F3B1
:104170008680000208D5D8F82800D4F8881020F4EA
:1041800040000843C8F82800002E18BF012630461A
:10419000BDE8F087201D022102F05EFC0546002DDF
:1041A0002E46D5D1D8F82000E16C20F480300025CF
:1041B0000843C8F820000AE0012501262068810094
:1041C000C9D508E001250127A078C007B3D13E4634
:1041D00020688100BFD504F12400022102F0D0FC48
:1041E000002818BF012620688103B6D5E16F6FF063
:1041F000010202EB3122022A0AD34FEA31223AB1FC
:10420000012A07D1D8F8002042F40032C8F8002073
:10421000002D41D00126C102A1D5D8F82410226F6B
:1042200021F000411143C8F82410C10099D558F875
:104230001C1CD4F8B42021F48041114348F81C1C04
:1042400081027FF590AFD8F82410A26E21F0807122
:104250001143C8F8241041007FF587AF58F81C1CA3
:1042600021F4004148F81C1CD4F8B81058F81C2C54
:10427000114348F81C1CB0F1FF3F3FF77AAFD8F864
:104280002010226D21F040511143C8F82010000287
:104290003FF571AF78E700BFD8F8282022F44072CC
:1042A0001143C8F82810C1027FF559AFB5E700BF28
:1042B00001250127207840073FF57CAEC3E500BF0C
:1042C000201D012102F0C8FB0546002D2F467FF47A
:1042D0006DAE09E004F12400012102F051FC054615
:1042E000002D2F467FF462AED8F82800616F20F0D1
:1042F000070000250843C8F8280037462078400703
:104300007FF5A1AD56E600BF012501262078800685
:104310003FF566AE9CE500BF201D012102F09CFB2D
:104320000546002D2E467FF457AE09E004F1240027
:10433000012102F025FC0546002D2E467FF44CAEEF
:10434000D8F82C00D4F8901020F00700002508437E
:10435000C8F82C003E46207880067FF579AD3FE610
:1043600001250127207840063FF552AE75E500BFD4
:10437000201D002102F070FB0546002D2F467FF422
:1043800043AE09E004F12400022102F0F9FB0546E6
:10439000002D2F467FF438AED8F82800D4F88C10C2
:1043A00020F0E04000250843C8F828003746207870
:1043B00040067FF552AD2BE6012501262078000648
:1043C0003FF53EAE4EE500BF201D002102F044FB4C
:1043D0000546002D2E467FF42FAE09E004F124009F
:1043E000022102F0CDFB0546002D2E467FF424AEBF
:1043F000D8F82C00D4F8981020F4E0500025084399
:10440000C8F82C003E46207800067FF52BAD17E655
:1044100001250127206801077FF52AAE27E500BFA7
:10442000201D002102F018FB0546002D2F467FF4C9
:104430001BAE09E004F12400022102F0A1FB0546B5
:10444000002D2F467FF410AED8F82C00D4F89C1025
:1044500020F4604000250843C8F82C003746206847
:1044600001077FF505AE02E5D4F8B0004FF6CF7333
:1044700058F81C2CC0F2FF0300F4407122F47C5267
:1044800003EA10136FF31F30B1F5407F08BF1A43E2
:10449000002548F81C2CD8F844100843C8F84400FC
:1044A000FFF799BC000000002DE9F04381B000281F
:1044B00000F02A8142F200080446C5F2002889462D
:1044C000D8F8000000F00F0088420ED2D8F80000A3
:1044D00020F00F0040EA0900C8F80000D8F80000FA
:1044E00000F00F00484540F00F81206844F2184763
:1044F0004107C5F602070AD521693A6802F0700241
:10450000914204D93A6822F07002114339600107E0
:104510000AD561697A6802F07002914204D97A681A
:1045200022F0700211437960C1060AD5A1697A6848
:1045300002F4E062914204D97A6822F4E062114305
:10454000796081060AD5E169BA6802F07002914289
:1045500004D9BA6822F070021143B96010F0020168
:104560000AD0E2683B6803F00F039A4204D93B6823
:1045700023F00F031A433A60C20746D03968D4E9E2
:10458000010221F47061012841EA0201396009D079
:1045900003280DD0022811D157F8181C890312D412
:1045A000B2E000BF57F8181CC9050CD4ACE000BF3E
:1045B00057F8181C890106D4A6E000BF57F8181C4C
:1045C000490740F1A18057F8081C21F00701084372
:1045D00047F8080CFEF7A0FE064641F2883500BFFA
:1045E00057F8080C616800F03800B0EBC10F09D033
:1045F000FEF792FE801BA842F2D9032001B0BDE86D
:10460000F08300BF206800F0020151B1E1683A6810
:1046100002F00F02914204D23A6822F00F021143D5
:104620003960D8F8001001F00F0149450DD9D8F8CC
:10463000001021F00F0141EA0901C8F80010D8F874
:10464000001001F00F0149455ED141070AD52169EB
:104650003A6802F07002914204D23A6822F0700285
:104660001143396001070AD561697A6802F0700266
:10467000914204D27A6822F0700211437960C10637
:104680000AD5A1697A6802F4E062914204D27A689C
:1046900022F4E0621143796080060AD5E069B968C6
:1046A00001F07001884204D2B96821F0700108431A
:1046B000B86000F0B5F839684DF6F852C9F200025A
:1046C000C1F30321515C3B6803F00F0301F01F01AC
:1046D000D25C20FA01F102F01F0040F21002C2F297
:1046E000000221FA00F0106040F2080040F20C02D3
:1046F000C2F20000C2F200020068116001B0BDE821
:10470000F043FEF755BE00BF012001B0BDE8F083C5
:1047100080B500F085F844F218414DF6F853C5F61F
:104720000201C9F200030A68C2F303229A5C096815
:1047300001F00F0102F01F02595C20FA02F201F0B1
:104740001F0040F21001C2F2000122FA00F00860DE
:1047500040F20C01C2F200010A6080BD00000000BE
:1047600080B500F05DF844F2184C4DF6F853C5F6EC
:10477000020CC9F20003DCF80020C2F303229A5CA9
:10478000DCF8001001F00F0102F01F02595CD0406C
:1047900040F21002C2F2000201F01F0120FA01F102
:1047A000116040F20C02C2F200021060DCF804005A
:1047B000C0F30210185C00F01F0021FA00F080BD69
:1047C00080B500F02DF844F2184C4DF6F853C5F6BC
:1047D000020CC9F20003DCF80020C2F303229A5C49
:1047E000DCF8001001F00F0102F01F02595CD0400C
:1047F00040F21002C2F2000201F01F0120FA01F1A2
:10480000116040F20C02C2F200021060DCF80400F9
:10481000C0F30220185C00F01F0021FA00F080BDF8
:1048200044F20041C5F602010869C0F3C200032842
:1048300010D002282ED098BB0868800649F20000EC
:10484000C0F2D03058BF70470968C1F3C101C840F9
:10485000704700BF8A6A886AC0F3051CC86ABCF149
:10486000000F4B6B22D000F0010002F00302404227
:10487000022A00EAD3006FF35F3000EE100AB8EEB0
:10488000400A15D0C2B90868800619D49FED281ACD
:1048900023E000BF47F64000C0F27D10704700BF24
:1048A00040F60010C0F23D00704700BF0020704786
:1048B0009FED1E1A11E000BF9FED1B1A0DE000BF17
:1048C000086849F20002C0F2D032C0F3C10022FAF7
:1048D00000F001EE100AB8EE411A086B9FED153A90
:1048E0006FF35F2002EE100A086BC0F34620B8EEAB
:1048F000422A013000EE032A00EE10CAB7EE003A59
:10490000B8EE400A81EE000A32EE031A20EE010AE8
:1049100001EE100AB8EE411A80EE010ABCEEC00AA0
:1049200010EE100A704700BF0024744A20BCBE4B32
:104930000024744C00000039002841D0F0B581B04B
:104940000446007844F20046C007C5F6020612D0BD
:10495000306900F03801B06A102905D0182931D12A
:1049600000F0030002282DD13068800303D5606871
:10497000002800F05B812078800740F19880306942
:1049800010F03801B06A2FD0182908BF5FEA807094
:104990002AD0E0683168002844D021F0190108438A
:1049A0003060FEF7B9FC05463068400723D4FEF7B7
:1049B000B3FC401B0228F7D9032001B0F0BD00BFB3
:1049C00001207047606800283ED0B0F5A02F53D07A
:1049D000B0F5803F54D0306820F4803030603068CB
:1049E00020F480204FE000BF3068400703D5E06826
:1049F000002800F01B81FEF787FC41F2030188428A
:104A000008D820697168402821F47C314CD141F4E8
:104A100000304BE07068216920F0FE4040EA016000
:104A200044E000BF21F001003060FEF775FC054650
:104A3000306840073BD5FEF76FFC401B02284FF063
:104A40000300F5D901B0F0BD306820F4803030604B
:104A5000306820F480203060FEF75EFC054600BF21
:104A6000306880037FF587AFFEF756FC401B642853
:104A70004FF00300F4D9E5E7306840F4802030605F
:104A8000306840F480303060FEF746FC054600BFD9
:104A9000306880033FF56FAFFEF73EFC401B642893
:104AA000F6D9032001B0F0BD41EA003070602078F3
:104AB000C00654D5306900F03801B06A082905D025
:104AC000182919D100F00300012815D13068C0055C
:104AD00003D5E069802840F0A980FEF715FC41F27B
:104AE000030188421ED8206A7168202821F0F8410D
:104AF00032D141F0804031E0E0690028306819D0BF
:104B000040F080003060FEF707FC05463068C005C5
:104B1000E3D4FEF701FC401B0228F7D9032001B0C3
:104B2000F0BD00BFF068216A20F07C5040EA0160CF
:104B3000F06014E020F080003060FEF7EDFB0546E9
:104B40003068C0050BD5FEF7E7FB401B02284FF08D
:104B50000300F5D976E700BF41EA806070602078F5
:104B6000000737D4207880064AD42078400761D4E3
:104B7000656A65B3306900F03800182840F0A480F9
:104B8000012DB16A306B51D001F00302A36A9A4241
:104B90004CD1C1F30511E26A914247D10146226B23
:104BA0006FF35F21013A914240D1C0F34622616B1D
:104BB00001398A423AD1C0F30642A16B01398A42D7
:104BC00034D1C0F30660E16B013988422ED1002058
:104BD00001B0F0BD60690028706F41D040F0010065
:104BE0007067FEF799FB0546706F8007BAD4FEF731
:104BF00093FB401B0228F7D9032001B0F0BD00BF92
:104C0000A069002830684DD040F480503060FEF735
:104C100083FB054630688004A7D4FEF77DFB401B6C
:104C20000228F7D9032001B0F0BD00BF012001B078
:104C3000F0BD00BFD6F8000440F48070C6F8000450
:104C4000FEF76AFB054600BFD6F80004C00519D47C
:104C5000FEF762FB401B6428F6D9032001B0F0BDCB
:104C600020F001007067FEF757FB0546706F800764
:104C70007FF578AFFEF750FB401B0228F6D90320E2
:104C800001B0F0BDA068002840D0052858D0012808
:104C90005AD0306F20F001003067306F20F00400F0
:104CA00055E000BF20F480503060FEF735FB05462C
:104CB000306880047FF559AFFEF72EFB401B0228B9
:104CC0004FF00300F4D9BDE6306820F0807030600A
:104CD000FEF722FB022D05460CD100BF3068800193
:104CE00048D5FEF719FB401B02284FF00300F5D909
:104CF000A8E600BF306880017FF569AFFEF70CFBC6
:104D0000401B02284FF00300F4D99BE6306F20F0DF
:104D100001003067306F20F004003067FEF7FCFAC6
:104D2000054641F2883700BF306F80077FF520AF1E
:104D3000FEF7F2FA401BB8424FF00300F4D981E6C7
:104D4000306F40F004003067306F40F00100306792
:104D5000FEF7E2FA054641F2883700BF306F800760
:104D60003FF506AFFEF7D8FA401BB8424FF00300FC
:104D7000F4D967E604F12807B06A40F2F3318843BA
:104D80008ECF0843591E40EA02104FF47E426FF363
:104D90005F21B06202EB47204FF4FE0280B2E36B6A
:104DA0000844A16B02EB01414FF0FE4201F4FE0109
:104DB00002EB0362084402F0FE4108443063F06AEB
:104DC0004FF6F87120F00100F062706BA26C88431E
:104DD00040EAC2007063F06A216C20F00C000843C6
:104DE000F062F06A616C20F002000843F062F06A41
:104DF00040F48030F062F06A40F40030F062F06A13
:104E000040F48020F062F06A40F00100F062306807
:104E100040F080703060FEF77FFA04463068800111
:104E20003FF5D5AEFEF778FA001B02284FF00300DD
:104E3000F4D907E600000000002847D02DE9F04132
:104E400043F6000104460068C4F2000143F2000E7C
:104E500043F6004C8842C4F2010EC4F2000C4FF03D
:104E60000002A26203D0604518BF704540D1E36BD9
:104E70000125E268884202F1080205EB53134FEA6C
:104E8000D20202FB03F318BF704521D1102B32D898
:104E900094F8810028B9002084F88000204600F0B2
:104EA00083F8022084F881002068D4F818C00268D2
:104EB000BCF1806F22F00102026027D16268EAB182
:104EC000B2F5800F22D1A26B02BB1BE0012070471C
:104ED000604518BF082B0ED80CF574418842D5D018
:104EE0006045D5D1102B84BF0120BDE8F081CFE70C
:104EF000E3680F2BBBD90120BDE8F081A26BB2F1B2
:104F0000805F03D1026842F480520260E269A36AC2
:104F10001A43E36B1343D4E90318D4E9012E194370
:104F20008160616BA56B636A41EA0301636941EAD1
:104F30000501256A41EA080141EA0301A36DD4E9AC
:104F4000127641EA050141EA060141EA0E0141EA11
:104F5000070141EA030141EA0C0141EA0201C16093
:104F600062B1016D520221F00101016514D5C168E1
:104F7000626D21F000411143C1600DE081680122A2
:104F800062F3CC2181608168022262F34A21816050
:104F9000016D21F0010101650020C4F884000121A8
:104FA00084F88110BDE8F08143F200410068C4F24A
:104FB0000101884218BF70472DE9F04186B044F2E4
:104FC000E04041F20004C5F60200C5F6020401AD5E
:104FD0000026016941F400510161016901F40051A9
:104FE00001910199016841F010010160016801F02F
:104FF000100101910199016841F008010160016807
:1050000001F0080101910199016841F0100101606E
:105010000068294600F01000019001984FF4B0405C
:105020000190022002900320049005200590204664
:105030000396FEF76DF8A4F5806029464FF400480A
:10504000CDF8048001270496CDE90276FEF760F8DA
:1050500020462946CDE90187CDE90366FEF758F8D9
:1050600006B0BDE8F04170472DE9F047044690F8DE
:105070008000012802D10220BDE8F0871D461746B6
:105080000E46D4F80090012084F88000FEF744F921
:1050900094F88110012909D1002E18BF002F0BD1DF
:1050A000002084F880000120BDE8F087002084F80B
:1050B00080000220BDE8F0878046032084F881004C
:1050C0000020C4F88400E665A4F86070A4F862705B
:1050D0006066A4F86800A4F86A00A1682067B1F5CA
:1050E000C02F6067206803D1016841F4006101604E
:1050F00041684FF6FF72914339444160016841F0C5
:10510000010101606168B1F5800F03D1016841F4CC
:1051100000710160E16810294CD3B4F862000028E6
:1051200000F0C480681C10D131E000BFE16D51F87F
:10513000042B0262E165B4F862000138A4F8620051
:10514000B4F86200002800F0B18020684169890746
:10515000ECD4FEF7E1F8A0EB0800A842F0D320461B
:1051600005F0C6FE002084F88000D4F8840040F4E6
:105170008070C4F88400012084F88100BDE8F087C5
:10518000FEF7CAF8B4F86200002800F08F802068AB
:1051900041698907F4D5E16D51F8042B0262E1659C
:1051A000B4F862000138A4F86200B4F86200002884
:1051B000EDD17BE0B4F86200072933D9002875D01F
:1051C0004FF6FE706E1C471C13E000BFE06B00281A
:1051D000E06D20D050F8042B0A624FF6FE71E065B6
:1051E000B4F862000844A4F86200B4F86200002831
:1051F0005CD021684869800708D4FEF78DF8002E3E
:10520000F3D0A0EB0800A842EFD3A8E7B4F86200FF
:105210000128DBD8E06D30F8021BA9F820103946D0
:10522000DDE700BF002841D04FF6FE706E1CA0F1F4
:10523000020A471C0EE000BFE16D51F8042B026228
:105240005046E165B4F862100844A4F86200B4F86E
:10525000620058B320684169890709D4FEF75CF8F9
:10526000002EF4D0A0EB0800A842F0D377E700BFEF
:10527000B4F86210042902D3E16B4129DCD2B4F8FE
:10528000621001290AD9E16B0029E16D07D031F8DC
:10529000020BA9F820004FF6FE70D2E7E16D097805
:1052A00080F82010E06D411C3846CAE7681C13D016
:1052B00020684069000713D4FEF72EF8A0EB080021
:1052C000A842F5D3D4F8840040F02000C4F884004C
:1052D00006E000BFFEF720F8206840690007F9D516
:1052E000204605F005FE002084F88000012084F8A7
:1052F0008100D4F88400002818BF0120BDE8F087A1
:10530000411E0020B0EB116F02D00120704700BF9A
:105310004EF21002F023CEF2000251604EF62351FD
:10532000CEF200010B700721906011607047000001
:1053300090F88010012901D1022070472421C0F883
:10534000841002681368116823F0005321F00101F2
:1053500011600021416613602022C0F8842080F88B
:10536000801008467047000090F88020012A01D183
:105370000220704770B52422C0F884200268D0F85B
:1053800064E0BEF1000FD2F800C0136823F00103FF
:105390001360936823F0606341EA0301916019D0C0
:1053A00091684FF2062E9368C9F2000E5B0F4FF220
:1053B0000E25C1F34266C9F200051EF80340E95C00
:1053C0002301B3FBF1F11EF80630AE5D1B01B3FB08
:1053D000F6F301E001210123A0F86A102021A0F8D2
:1053E0006830C2F800C0C0F88410002180F8801036
:1053F000BDE870400846704790F88020012A01D12E
:105400000220704770B52422C0F884200268D0F8CA
:1054100064E0BEF1000FD2F800C0136823F001036E
:105420001360936823F0604341EA0301916019D04F
:1054300091684FF2062E9368C9F2000E5B0F4FF28F
:105440000E25C1F34266C9F200051EF80340E95C6F
:105450002301B3FBF1F11EF80630AE5D1B01B3FB77
:10546000F6F301E001210123A0F86A102021A0F841
:105470006830C2F800C0C0F88410002180F88010A5
:10548000BDE870400846704710B5A8B10446D0F892
:10549000840028B9002084F88000204600F028F815
:1054A0002420C4F884002068016821F00101016013
:1054B000204606F011FC08B1012010BDA06A10B111
:1054C000204606F01DFB2068416821F490414160B0
:1054D000816821F02A018160016841F001010160C9
:1054E0002046BDE8104006F07BBB00000000000035
:1054F00041F200010068C4F20101884218BF704700
:10550000B0B586B044F2E0400024C5F60200C5F60E
:10551000020401AD016941F010010161016901F06E
:10552000100101910199016841F0010101600168D8
:1055300001F0010101910199016841F0010101604F
:105540000068294600F00100019001984FF40070B6
:105550000190022002900120039003200490072074
:1055600005902046FDF7D4FD4FF480600190204661
:105570002946FDF7CDFD06B0BDE8B04070470000FC
:105580002DE9F04182B00446D0F8840020280BD1E8
:105590000D4600294FF001005CD01746002A59D073
:1055A00094F88000012803D1022002B0BDE8F08108
:1055B0009846012084F880000020C4F88C00212047
:1055C000C4F88400FDF7A8FEA4F85470A4F856703F
:1055D0000746A168B1F5805F01D1206910B12E4660
:1055E000002500E00026002084F880000CE000BFC9
:1055F00035F8020B216800266FF35F208862B4F84B
:1056000056000138A4F85600B4F8560080B1802145
:10561000002220463B46CDF8008006F099FD80B977
:10562000002EE5D0206816F8011B8162E7E700BF75
:105630004021002220463B46CDF8008006F088FD40
:1056400020B1032002B0BDE8F08100BF2020C4F8E3
:105650008400002002B0BDE8F081000000000000DE
:10566000FEE7000000000000F0B581B01C461546C2
:1056700002440B44013A013B92B2069E9BB200F0F9
:10568000F3FA41F200004FF40041C5F60200012296
:10569000FDF732FE40F608170F20C2F20007F8604F
:1056A0003846FFF7C9FB04FB05F23846314600F0E7
:1056B00027FA0720F860384601B0BDE8F040FFF750
:1056C000BBBB0000000000002DE9F04F83B040F2AA
:1056D0002007C2F20007CDE901013B681D89002DBA
:1056E00000F09680203A40F2081E5FFA82F91868AE
:1056F000D7E902BA0027C2F2000E00224FF00008DC
:1057000005FB0904E55D1FFA88F4EE075E4608BF55
:1057100056462EF81460561C1FFA86FC9C88A44539
:1057200008F1010454D0A6B2AC075C4658BF5446F9
:105730002EF81640961CB1B29C88A14208F10204D2
:1057400046D0A1B26E075E4658BF56462EF811608D
:10575000D61CB4B299888C4208F1030438D0A1B2A7
:105760002E075E4658BF56462EF81160161DB4B27D
:1057700099888C4208F104042AD0A1B2EE065E4654
:1057800058BF56462EF81160561DB4B299888C4207
:1057900008F105041CD0A1B2AE065E4658BF5646BD
:1057A0002EF81160961DB4B299888C4208F1060457
:1057B0000ED0A1B26E065E4658BF56462EF8116056
:1057C000D61DB4B299888C4208F1070408D100BFF5
:1057D0000022A0461D890137AF4291D319E000BFD6
:1057E00069B208F10808A6B20029594658BF5146C7
:1057F0002EF8161002F108018AB29E88921B18BF7B
:105800000A461D890137AF42FFF47AAF01E000BFBD
:105810009E88DB880198029982190B44013A92B262
:10582000013B9BB200F020FA40F220000122C2F2BC
:10583000000000688188C08800FB01F541F200008B
:10584000C5F602004FF40041FDF756FD40F608147E
:105850000F20C2F20004E0602046FFF7EDFAAAB282
:1058600040F20811C2F200014FF47A732046FFF7AC
:10587000FBFB0720E060204603B0BDE8F04FFFF7D8
:10588000DBBA000000000000F0B581B040F2200754
:10589000C2F200077B8A834210D9044615460E46A1
:1058A0002A785AB1A0B23146FFF70EFF38680135A9
:1058B00080880444788AA1B28142F1D301B0F0BD5E
:1058C000016840F26F32D1F814C08B6943F00803CD
:1058D0008B618B6943F010038B610B6823F001032C
:1058E0000B600B6923EA02020A618A6822F44042D3
:1058F0008A6090F88120042A18BF1CF0200209D089
:10590000D0F8842042F08002C0F884208A6942F0F6
:1059100020028A6190F88120032A18BF1CF04002FF
:105920000CD15FEA8C5216D45FEACC5220D400210D
:10593000A0F86210A0F86A10704700BFD0F8842069
:1059400042F00402C0F884208A6942F040028A6171
:105950005FEA8C52E8D5D0F8842042F00102C0F80A
:1059600084208A6942F400728A615FEACC52DED5F3
:10597000D0F8842042F00802C0F884208A6942F4FA
:1059800080728A610021A0F86210A0F86A10704746
:105990002DE9F041044690F88000012802D1022050
:1059A000BDE8F08116460F46012084F88000FDF71F
:1059B000B3FC94F88110012952D1002E56D005462F
:1059C000032084F881000020C4F884006066A4F8F5
:1059D0006800A4F86A00A168B1F5C02FC4E91C00F2
:1059E000206803D1016841F40061016041684FF60D
:1059F000FF7291434160016847EA074841F00101A5
:105A000001606168B1F5800F0BD1016841F400714C
:105A1000016006E0FDF780FC401BB0F57A7F2BD2D9
:105A2000C6B1206841698907F4D5B4F8621002292B
:105A300006D3E16B21B1C0F82080023EF0E700BF41
:105A4000013E0784ECE700BFFDF766FC401BB0F5A4
:105A50007A7F23D220684169C904F5D525E000BFCB
:105A6000002084F880000220BDE8F081002084F846
:105A700080000120BDE8F0812046FFF721FF0020D3
:105A800084F88000D4F8840040F48070C4F8840066
:105A9000012084F88100BDE8F08100BF2068D4F8BF
:105AA000841041F02001C4F88410016841F4806141
:105AB000016000BF2068406900050BD4FDF72CFC95
:105AC000401BB0F57A7FF5D3D4F8840040F0200075
:105AD000C4F884002046FFF7F3FE2068816941F492
